:020000020000FC
:040000000C9420003C
:10002C000C9418004F934FB74F9381504F914FBF83
:10003C004F91189582E090E05CE06CE00C0C0C1495
:10004C000C241424242424212121222122220C22B8
:10005C004FEF4DBF48E04EBF4FEF44B947B955B9CC
:10006C0068B944EF4093890044E24093880040E033
:10007C00409380004CE040938100E8E4F0E0409134
:10008C006F00426040936F0078948030F1F79030AD
:10009C0091F0913099F09230A1F09330A9F0943016
:1000AC00B1F09530B9F09630C1F09730C9F0983076
:1000BC00D1F09930D9F091E082E01BC092E082E05F
:1000CC0018C093E082E015C094E082E012C095E085
:1000DC0082E00FC096E082E00CC097E082E009C09D
:1000EC0098E082E006C099E082E003C090E082E0F4
:1000FC0000C040E0E90FF41FE90FF41F559155B90A
:0A010C00649168B9E8E4F0E0C0CFA8
:00000001FF
